S01700004763634170706C69636174696F6E312E737265635B
S11300000C9446000C9465000C9463000C946300FB
S11300100C9463000C94F8000C9463000C94D000CE
S11300200C9463000C9463000C9463000C947B00A8
S11300300C9463000C9463000C9463000C946300B0
S11300400C9463000C9463000C9463000C946300A0
S11300500C9463003B034C035D036E037F03900326
S1130060A103B203C303D403FC030D041E042F0431
S1130070400451046204730484049504E204E80413
S1130080EE04F404FA04000506050C0511241FBE51
S1130090CFE5D8E0DEBFCDBF10E0A0E6B0E0E8EEEB
S11300A0F2E102C005900D92A236B107D9F720E023
S11300B0A2E6B0E001C01D92A338B207E1F70E94A6
S11300C099010C9472090C9400001F920F920FB6C0
S11300D00F9211248F9380916B00813019F4109248
S11300E06B0003C081E080936B008F910F900FBE73
S11300F00F901F9018951F920F920FB60F92112414
S11301002F933F934F935F936F937F938F939F931B
S1130110AF93BF93EF93FF93809166009091670034
S1130120A0916800B09169000196A11DB11D809352
S1130130660090936700A0936800B09369004091B3
S11301407B0050917C0060917D0070917E0084174B
S11301509507A607B70799F40E94FB022FEF80E7E3
S113016092E0215080409040E1F700C000001092DE
S11301706600109267001092680010926900FF9167
S1130180EF91BF91AF919F918F917F916F915F910B
S11301904F913F912F910F900FBE0F901F90189584
S11301A01F920F920FB60F9211242F933F934F93E8
S11301B05F936F937F938F939F93AF93BF93EF93CB
S11301C0FF930E9493080E94500810926A00FF91C6
S11301D0EF91BF91AF919F918F917F916F915F91BB
S11301E04F913F912F910F900FBE0F901F90189534
S11301F01F920F920FB60F9211242F933F934F9398
S11302005F936F937F938F939F93AF93BF93CF939A
S1130210DF93EF93FF938091620090916300A0912C
S11302206400B09165000196A11DB11D8093620028
S113023090936300A0936400B093650040917700AD
S1130240509178006091790070917A008417950735
S1130250A607B70791F5CCE6D0E025E730E0FE012C
S113026081818193E217F307D9F70E94C004809338
S1130270750046E750E080E090E02991820F911DDF
S113028027FD9A95C417D507C1F76AE070E00E946C
S1130290080960936000643624F083E6809360006C
S11302A004C0662314F4109260001092620010924D
S11302B063001092640010926500FF91EF91DF914A
S11302C0CF91BF91AF919F918F917F916F915F91EA
S11302D04F913F912F910F900FBE0F901F90189543
S11302E020916000022E000C330B8091760090E088
S11302F0AC01455051092417350754F480E00E949D
S1130300960281E00E946C0282E00E9481020895BC
S113031005968217930754F480E00E946C0281E0F2
S11303200E94810282E00E946C0208950E94A80249
S113033008950E94DB070E94DE0282E00E945702B9
S113034081E00E94570280E00E94570280E00E94F0
S1130350B50281E00E94B5020E94BD040E945A08C1
S113036060EA7FE080E090E00E946D080E94E80768
S11303706EEE72E080E090E00E94F5070E94A00813
S113038064E670E080E090E00E94AD080E94FE0800
S11303908CE38093760080916B00811105C00E94EC
S11303A0FB020E94A802F7CF0E94700180916A00AC
S11303B0882309F44CC0809176000E940C0380E0ED
S11303C00E94CA028823F1F02FEF81EE94E02150BD
S11303D080409040E1F700C000000E949D0806C0E4
S11303E0809176000E940C030E94700180E00E94BC
S11303F0CA028111F5CF80917600843218F08550BD
S11304008093760081E00E94CA02882321F22FEFB4
S113041081EE94E0215080409040E1F700C000005C
S11304200E949D0806C0809176000E940C030E94E1
S1130430700181E00E94CA028111F5CF809176009B
S11304408B3408F0A8CF8B5F80937600A4CF809183
S113045060000E940C0381E00E94CA02811105C061
S11304600E94CA02882309F496CF2FEF81EE94E00C
S1130470215080409040E1F700C000000DC0809101
S113048076000E940C030E94700181E080936A0050
S11304900E9489080E94460880E00E94CA028111D5
S11304A0EECF81E00E94CA028111E9CF74CF81307E
S11304B049F018F0823059F0089561E080E20E941A
S11304C01705089561E085E20E941705089561E02B
S11304D087E10E9417050895813049F018F08230B1
S11304E059F0089561E080E20E940606089561E0F3
S11304F085E20E940606089561E087E10E940606EF
S11305000895813049F018F0823059F0089560E080
S113051080E20E940606089560E085E20E940606D5
S1130520089560E087E10E9406060895813041F055
S113053018F0823049F0089580E20E94F50608958B
S113054085E20E94F506089587E10E94F506089564
S113055060E080E20E94060660E085E20E940606F2
S113056060E087E10E9406060895813049F018F0A2
S1130570823059F0089560E08AE00E9417050895DA
S113058060E08AE10E941705089560E086E10E9418
S113059017050895813041F018F0823049F00CC0FD
S11305A08AE00E946B0708958AE10E946B07089510
S11305B086E10E946B07089580E0089561E08BE076
S11305C00E94170561E08CE00E94170561E08DE050
S11305D00E94170561E08CE20E94170561E08DE23C
S11305E00E94170561E08EE20E94170561E08FE228
S11305F00E941705089561E08CE20E94060661E0FE
S11306008DE20E94060661E08EE20E94060661E029
S11306108FE20E94060608958F929F92AF92BF9236
S1130620CF92DF92EF92FF92CF93DF939DEC899F5D
S1130630C12C1124C694C694C6942C2D220F922F3B
S1130640990F990F920F882E891AC2E3D0E0D12C0A
S1130650912C61E08CE00E94060660E08BE00E9431
S113066006068AE0C816D10408F0AEC0F601E65DBD
S1130670FF4F0C943E0960E08CE20E94060660E0A5
S11306808DE20E94060660E08EE20E94060660E0AB
S11306908FE20E94060698C061E08CE20E94060682
S11306A060E08DE20E94060660E08EE20E9406068B
S11306B060E08FE20E94060687C060E08CE20E9440
S11306C0060661E08DE20E94060660E08EE20E946A
S11306D0060660E08FE20E94060676C061E08CE2C6
S11306E00E94060661E08DE20E94060660E08EE24A
S11306F00E94060660E08FE20E94060665C060E084
S11307008CE20E94060660E08DE20E94060661E02B
S11307108EE20E94060660E08FE20E94060654C044
S113072061E08CE20E94060660E08DE20E9406060B
S113073061E08EE20E94060660E08FE20E940606F7
S113074043C060E08CE20E94060661E08DE20E94F4
S1130750060661E08EE20E94060660E08FE20E94D7
S1130760060632C061E08CE20E94060661E08DE27A
S11307700E94060661E08EE20E94060660E08FE2B7
S11307800E94060621C060E08CE20E94060660E03A
S11307908DE20E94060660E08EE20E94060661E099
S11307A08FE20E94060610C061E08CE20E940606F9
S11307B060E08DE20E94060660E08EE20E9406067A
S11307C061E08FE20E9406068FE99FE00197F1F74E
S11307D000C0000060E08CE00E94060661E08BE04F
S11307E00E9406069AE08916910408F0AEC0F4014E
S11307F0EC5CFF4F0C943E0960E08CE20E9406061C
S113080060E08DE20E94060660E08EE20E94060629
S113081060E08FE20E94060698C061E08CE20E94CC
S1130820060660E08DE20E94060660E08EE20E9409
S1130830060660E08FE20E94060687C060E08CE254
S11308400E94060661E08DE20E94060660E08EE2E8
S11308500E94060660E08FE20E94060676C061E010
S11308608CE20E94060661E08DE20E94060660E0CA
S11308708EE20E94060660E08FE20E94060665C0D2
S113088060E08CE20E94060660E08DE20E940606AB
S113089061E08EE20E94060660E08FE20E94060696
S11308A054C061E08CE20E94060660E08DE20E9482
S11308B0060661E08EE20E94060660E08FE20E9476
S11308C0060643C060E08CE20E94060661E08DE209
S11308D00E94060661E08EE20E94060660E08FE256
S11308E00E94060632C061E08CE20E94060661E0C6
S11308F08DE20E94060661E08EE20E94060660E038
S11309008FE20E94060621C060E08CE20E94060687
S113091060E08DE20E94060660E08EE20E94060618
S113092061E08FE20E94060610C061E08CE20E9442
S1130930060660E08DE20E94060660E08EE20E94F8
S1130940060661E08FE20E9406068FE99FE00197A8
S1130950F1F700C0000060E08BE00E9406062197DA
S113096009F077CEDF91CF91FF90EF90DF90CF9099
S1130970BF90AF909F908F9008950E94D0040895E7
S113098081E00E94D9049C01A4EFB1E00E944409D3
S11309902FEF33E040E050E00E941C09C9010895A4
S11309A03E9A3F983D98359A309A319A329A379ABE
S11309B0089590E088309105A0F5FC01E25CFF4FBA
S11309C00C943E09389839983A983B983C9829C039
S11309D0389A39983A983B983C9823C03898399A71
S11309E03A983B983C981DC0389A399A3A983B9863
S11309F03C9817C0389839983A9A3B983C9811C05B
S1130A00389A39983A9A3B983C980BC03898399A56
S1130A103A9A3B983C9805C0389A399A3A9A3B9846
S1130A203C98369A349BFECF84B195B108959DECE1
S1130A30899F912D1124969596959695662309F490
S1130A4072C0613009F0E1C0923021F118F49130A4
S1130A5039F008959330C1F1943009F44CC00895ED
S1130A6047B39DEC899F912D112496959695969563
S1130A70990F292F220F220F920F891B21E030E0BA
S1130A80B90102C0660F771F8A95E2F7CB01842B68
S1130A9087BB089541B39DEC899F912D11249295B4
S1130AA09F70990F990F292F220F220F920F891BE4
S1130AB021E030E0B90102C0660F771F8A95E2F7A2
S1130AC0CB01842B81BB089544B399E8899F912D70
S1130AD0112492959F707EE1979F8019112421E043
S1130AE030E0B90102C0660F771F8A95E2F7CB01A7
S1130AF0842B84BB08954AB39DEC899F912D1124C6
S1130B0092959695977078E2979F8019112421E029
S1130B1030E0B90102C0660F771F8A95E2F7CB0176
S1130B20842B8ABB0895923029F118F4913039F05E
S1130B3008959330D1F1943009F44FC0089547B328
S1130B409DEC899F912D1124969596959695990FD4
S1130B50292F220F220F920F891B21E030E0B901C7
S1130B6002C0660F771F8A95E2F7CB018095842334
S1130B7087BB089541B39DEC899F912D11249295D3
S1130B809F70990F990F292F220F220F920F891B03
S1130B9021E030E0B90102C0660F771F8A95E2F7C1
S1130BA0CB018095842381BB089544B399E8899F40
S1130BB0912D112492959F707EE1979F80191124A5
S1130BC021E030E0B90102C0660F771F8A95E2F791
S1130BD0CB018095842384BB08954AB39DEC899FFF
S1130BE0912D112492959695977078E2979F80198C
S1130BF0112421E030E0B90102C0660F771F8A9505
S1130C00E2F7CB01809584238ABB08959DEC899FEC
S1130C10912D1124969596959695662309F472C0A4
S1130C20613009F0E1C0923021F118F4913039F0CB
S1130C3008959330C1F1943009F44CC0089548B339
S1130C409DEC899F912D1124969596959695990FD3
S1130C50292F220F220F920F891B21E030E0B901C6
S1130C6002C0660F771F8A95E2F7CB01842B88BBFD
S1130C70089542B39DEC899F912D112492959F7004
S1130C80990F990F292F220F220F920F891B21E010
S1130C9030E0B90102C0660F771F8A95E2F7CB01F5
S1130CA0842B82BB089545B399E8899F912D112423
S1130CB092959F707EE1979F8019112421E030E086
S1130CC0B90102C0660F771F8A95E2F7CB01842B26
S1130CD085BB08954BB39DEC899F912D112492956A
S1130CE09695977078E2979F8019112421E030E05F
S1130CF0B90102C0660F771F8A95E2F7CB01842BF6
S1130D008BBB0895923029F118F4913039F008958D
S1130D109330D1F1943009F44FC0089548B39DEC59
S1130D20899F912D1124969596959695990F292F23
S1130D30220F220F920F891B21E030E0B90102C07B
S1130D40660F771F8A95E2F7CB018095842388BBD1
S1130D50089542B39DEC899F912D112492959F7023
S1130D60990F990F292F220F220F920F891B21E02F
S1130D7030E0B90102C0660F771F8A95E2F7CB0114
S1130D808095842382BB089545B399E8899F912D6A
S1130D90112492959F707EE1979F8019112421E080
S1130DA030E0B90102C0660F771F8A95E2F7CB01E4
S1130DB08095842385BB08954BB39DEC899F912D29
S1130DC0112492959695977078E2979F8019112433
S1130DD021E030E0B90102C0660F771F8A95E2F77F
S1130DE0CB01809584238BBB08959DEC899F912D25
S1130DF01124969596959695923021F118F4913098
S1130E0039F008959330C1F1943009F44CC0089539
S1130E1048B39DEC899F912D1124969596959695AE
S1130E20990F292F220F220F920F891B21E030E006
S1130E30B90102C0660F771F8A95E2F7CB018427B8
S1130E4088BB089542B39DEC899F912D11249295FE
S1130E509F70990F990F292F220F220F920F891B30
S1130E6021E030E0B90102C0660F771F8A95E2F7EE
S1130E70CB01842782BB089545B399E8899F912DBE
S1130E80112492959F707EE1979F8019112421E08F
S1130E9030E0B90102C0660F771F8A95E2F7CB01F3
S1130EA0842785BB08954BB39DEC899F912D112414
S1130EB092959695977078E2979F8019112421E076
S1130EC030E0B90102C0660F771F8A95E2F7CB01C3
S1130ED084278BBB08959DEC899F912D11249695B1
S1130EE096959695923011F118F4913039F061C0CD
S1130EF09330A1F1943009F446C05BC026B330E0CE
S1130F009DEC899F912D1124969596959695990F10
S1130F10492F440F440F940F891BA90102C0559512
S1130F2047958A95E2F7CA018170089520B330E0AD
S1130F309DEC899F912D112492959F70990F990F83
S1130F40492F440F440F940F891BA90102C05595E2
S1130F5047958A95E2F7CA018170089523B330E07A
S1130F6099E8899F912D112492959F705EE1959F38
S1130F7080191124A90102C0559547958A95E2F775
S1130F80CA018170089529B330E09DEC899F912DA9
S1130F90112492959695977058E2959F8019112483
S1130FA0A90102C0559547958A95E2F7CA01817057
S1130FB0089580E008958FB780688FBF8BB78064F1
S1130FC08BBF85B78E7F85BF85B7826085BF089547
S1130FD083B7877F83BF83B78F7B83BF8FB78068D7
S1130FE08FBF89B7816089BF08950F931F939B01B9
S1130FF0AC01A8EEB3E00E9453098B019C016894F4
S113100015F836952795179507951694D1F7DC01B1
S1131010CB01072E7EE0B695A795979587957A958F
S1131020D1F7702D80937B0090937C00A0937D007A
S1131030B0937E00D901C80180959095A095B09594
S1131040AC01BD0155276627772740937F00509355
S1131050800060938100709382000023A1F082BF1E
S113106080917B0090917C00A0917D00B0917E00E6
S11310700196A11DB11D80937B0090937C00A093E9
S11310807D00B0937E001F910F91089583B7816016
S113109083BF83B78D7F83BF83B7846083BF089585
S11310A083B78E7F83BF83B78D7F83BF83B78B7FE7
S11310B083BF08958FB58E7F8FBD8FB58D7F8FBD14
S11310C08EB588608EBD8EB58F7E8EBD8FB78068DD
S11310D08FBF89B7806189BF089561342FE172079A
S11310E081059105A8F4A8EEB3E09B01AC010E9430
S11310F05309DC01CB01689415F8B695A79597952B
S113110087951694D1F7BC01615071097BBD6ABD06
S113111008958EB581608EBD8EB58D7F8EBD8EB5E2
S113112084608EBD08958EB58E7F8EBD8EB58D7F05
S11311308EBD8EB58B7F8EBD08951DBC1CBC0895DD
S113114085B5877F85BD85B58F7B85BD8FB7806865
S11311508FBF89B7806489BF08950F931F939B0144
S1131160AC01A8EEB3E00E9453098B019C01689482
S113117015F836952795179507951694D1F7DC0140
S1131180CB01072E7EE0B695A795979587957A951E
S1131190D1F7702D8093770090937800A093790015
S11311A0B0937A00D901C80180959095A095B09527
S11311B0AC01BD0155276627772740937F005093E4
S11311C0800060938100709382000023A1F084BDAD
S11311D08091770090917800A0917900B0917A0085
S11311E00196A11DB11D8093770090937800A09380
S11311F07900B0937A001F910F91089585B58160AD
S113120085BD85B58D7F85BD85B5846085BD089513
S113121097FB072E16F4009407D077FD09D00E949F
S11312205E0907FC05D03EF4909581959F4F089583
S1131230709561957F4F0895A1E21A2EAA1BBB1BDE
S1131240FD010DC0AA1FBB1FEE1FFF1FA217B3078E
S1131250E407F50720F0A21BB30BE40BF50B661FA4
S1131260771F881F991F1A9469F760957095809568
S113127090959B01AC01BD01CF010895EE0FFF1FB6
S11312800590F491E02D0994A29FB001B39FC00191
S1131290A39F700D811D1124911DB29F700D811D9E
S11312A01124911D08950E944409A59F900DB49F97
S11312B0900DA49F800D911D11240895AA1BBB1BA2
S11312C051E107C0AA1FBB1FA617B70710F0A61B42
S11312D0B70B881F991F5A95A9F780959095BC0163
S10B12E0CD010895F894FFCF3D
S10512E82D00D3
S9030000FC
